:020000040800F2
:100000004804002001010008E5040008B9040008C4
:10001000E10400086D030008F3110008000000006F
:10002000000000000000000000000000C9090008F6
:100030007103000800000000A1050008B50A0008CF
:100040001B0100081B0100081B010008AD07000888
:100050001B0100081B0100081B0100081B01000810
:100060001B0100081B0100081B0100081B01000800
:100070001B0100081B0100081B0100081B010008F0
:100080001B0100081B0100081B0100081B010008E0
:100090001B0100081B0100081B0100081B010008D0
:1000A0001B0100081B0100081B0100081B010008C0
:1000B0001B0100081B0100081B0100081B010008B0
:1000C0001B0100081B0100081B0100081B010008A0
:1000D0001B0100081B0100081B0100081B01000890
:1000E0001B0100081B0100081B010008DFF80CD0F1
:1000F00000F0F2F8004800478D1500084804002081
:100100000648804706480047FEE7FEE7FEE7FEE7B1
:10011000FEE7FEE7FEE7FEE7FEE7FEE7B90A0008B6
:10012000ED00000838B5D0E90221491E01EB41017C
:1001300002EBC1014268C1EB011102EB81010268CF
:10014000C1EB011102EB8102D0E9043101EB410165
:1001500003EB81013023A1F5527191FBF3F4174DAC
:100160006C4302EBC41291FBF3F403FB14110092F5
:100170001A2902DB124B1A4400920C2291FBF2F373
:10018000104C6343009C04EBC313009391FBF2F308
:1001900002FB13110C4A08E0491E40F2A324535CF1
:1001A0006343009C04EBC31300930029F4DC014675
:1001B000684600F04BF8009838BD00003F0C0F0077
:1001C0008051010067C203009C15000840EA01034A
:1001D0009B0703D009E008C9121F08C0042AFAD2FD
:1001E00003E011F8013B00F8013B521EF9D27047C1
:1001F000D2B201E000F8012B491EFBD27047002269
:10020000F6E710B513460A4604461946FFF7F0FF15
:10021000204610BD30B50B460146002020220124A7
:1002200009E021FA02F59D4205D303FA02F5491BC4
:1002300004FA02F52844151EA2F10102F1DC30BDDA
:10024000014900F003B800001800002010B5006854
:100250003C22B0FBF2F302FB1303B0FBF2F00B60A5
:10026000B0FBF2F302FB1303B0FBF2F018224B6079
:10027000B0FBF2F302FB1303B0FBF2F0021D8B6044
:100280000723B2FBF3F403FB1422800040F2B553C2
:1002900000F66C308A61B0FBF3F2B0FBF3F403FBC1
:1002A0001400443280084A61C8613B2802D3920797
:1002B00000D0401C0022074C13460A61E25C8242D7
:1002C00003D8801A5B1C0B61F8E7401CC860084625
:1002D00010BD0000A8150008064C074D06E0E068B8
:1002E00040F0010394E8070098471034AC42F6D37D
:1002F000FFF700FFB4150008D415000810B5012061
:1003000000F070F9002000F06DF910BD01460020EA
:10031000044A10884FF67F4210400843014A10807B
:10032000704700002C6C004008B50146002000908A
:10033000034800900098084400900098008808BD89
:10034000006C0040014908607047000000860D42C3
:1003500008B500220092044A0092009A02440092DA
:10036000009A116008BD0000006C004000BFFEE76D
:10037000704700000848806940F010000649886115
:100380000648406820F47000044948600846406808
:1003900040F44010486070470010024000100140D7
:1003A0002DE9F0410246002500260020002300240C
:1003B000002791F803C00CF00F0591F803C00CF072
:1003C000100CBCF1000F03D091F802C04CEA0505F7
:1003D00091F800C0BCF1000F31D0146800202BE070
:1003E0004FF0010C0CFA00F3B1F800C00CEA030660
:1003F0009E4220D183004FF00F0C0CFA03F7BC4350
:1004000005FA03FC4CEA040491F803C0BCF1280F80
:1004100006D14FF0010C0CFA00FCC2F814C00AE03F
:1004200091F803C0BCF1480F05D14FF0010C0CFA54
:1004300000FCC2F810C0401C0828D1D31460B1F8E9
:1004400000C0BCF1FF0F34DD546800202EE000F145
:10045000080C4FF0010808FA0CF3B1F800C00CEAE0
:1004600003069E4221D183004FF00F0C0CFA03F7D4
:10047000BC4305FA03FC4CEA040491F803C0BCF148
:10048000280F05D100F1080C08FA0CF8C2F8148006
:1004900091F803C0BCF1480F07D100F1080C4FF0F0
:1004A000010808FA0CF8C2F81080401C0828CED3C6
:1004B0005460BDE8F081000000BF0748006800F408
:1004C000E06006490843001D03490860BFF34F8FF1
:1004D00000BF00BFFEE700000CED00E00000FA05E1
:1004E00000BFFEE7704708B54FF4C06000F048F861
:1004F00003208DF8000001208DF8010000208DF808
:10050000020001208DF80300684600F001F808BDE4
:1005100070B5002100230F22C47804B3154C246861
:1005200004F4E064C4F5E064210AC1F10403CA40A4
:10053000447804FA03F184781440214309010E4CF5
:100540000678A155047804F01F050124AC40057815
:100550006D11AD0005F1E025C5F8004109E0047812
:1005600004F01F050124AC40044D0678761145F8CF
:10057000264070BD0CED00E000E400E080E100E00A
:1005800002490143024A1160704700000000FA0569
:100590000CED00E0014908627047000000000E42C7
:1005A0007047000029B1064AD2690243044BDA6160
:1005B00004E0034AD2698243014BDA6170470000CC
:1005C0000010024029B1064A92690243044B9A6125
:1005D00004E0034A92698243014B9A61704700002C
:1005E0000010024001490860704700004004424288
:1005F0000348406A40F0807001494862704700003B
:100600000010024030B500210022002400232D4DAF
:100610006D6805F00C0121B1042905D0082923D10A
:1006200005E0294D056022E0274D05601FE0254DBE
:100630006D6805F47012234D6D6805F48034022551
:1006400005EB92421CB9214D554305600BE01D4D51
:100650006D6805F400351DB11C4D5543056002E081
:10066000194D5543056002E0174D056000BF00BFFE
:10067000144D6D6805F0F0010909154D6B5C0568B6
:10068000DD4045600F4D6D6805F4E061090A104DCD
:100690006B5C4568DD4085600A4D6D6805F460510E
:1006A000C90A0B4D6B5C4568DD40C560054D6D6842
:1006B00005F44041890B074D6B5CC568B5FBF3F54C
:1006C000056130BD0010024000127A0000093D00B3
:1006D000000000201000002010B501460022002379
:1006E00000204A11012A02D1094C236806E0022A9F
:1006F00002D1074C236A01E0054C636A01F01F0236
:10070000012494401C400CB1012000E0002010BDE9
:100710000010024001490860704700008004424216
:1007200001490860704700003C0442420249096ADE
:100730000143014A116270470010024002490988D2
:100740008143014A11807047042800400348008813
:1007500040F0100001490880704700000428004064
:10076000034800884FF6EF71084001490880704740
:1007700004280040002103480188001F008841EA46
:10078000004070471C28004001460020064A12889D
:100790000A40D0B2044A121F12880A4012B108B1AE
:1007A000012000E0002070470428004010B501201F
:1007B000FFF7EAFF20B10120FFF7C0FF00F0C8F902
:1007C00010BD000029B1064A12880243044B1A806A
:1007D00004E0034A12888243014B1A8070470000EC
:1007E0000028004010B501214FF0C050FFF7DAFE9D
:1007F0000120FFF7CFFE0120FFF78CFF0420FFF759
:1008000093FD4AF2A551884210D01BA000F0F4FCE1
:1008100000F07EF8012000F0D3F91FA000F0ECFCFE
:100820004AF2A5510420FFF793FD19E07B20FFF762
:1008300053FF18B11EA000F0DFFC06E07A20FFF79E
:100840004BFF10B122A000F0D7FC29A000F0D4FC8F
:1008500000F0A8F801210846FFF7B4FF00F098F86F
:10086000FFF741FE0020FFF76DFD8020FFF74EFDF2
:10087000FFF7BEFE10BD0000525443206E6F74207F
:1008800079657420636F6E666967757265642E2E74
:100890002E2E0D0A0000000052544320636F6E6636
:1008A0006967757265642E2E2E2E0D0A00000000F9
:1008B00020506F776572204F6E20526573657420EB
:1008C0006F636375727265642E2E2E2E0D0A000002
:1008D0002045787465726E616C2052657365742072
:1008E0006F636375727265642E2E2E2E0D0A0000E2
:1008F0004E6F206E65656420746F20636F6E66694D
:1009000067757265205254432E2E2E2E0D0A00005C
:1009100010B5FFF7F3FC00BF6120FFF7DDFE0028F4
:10092000FAD04FF40070FFF701FF0120FFF7F8FE47
:1009300000F038F800F02CF801210846FFF742FFDC
:1009400000F026F849F6404000F012F800F020F8D8
:1009500010BD000000B50246FFF7F8FE100C034979
:100960000880091D0A80FFF7FBFE00BD1828004023
:1009700000B50246FFF7EAFEC2F3034003490880D0
:10098000091D0A80FFF7ECFE00BD000008280040AA
:1009900000BF0348008800F020000028F9D070470D
:1009A00004280040074800884FF6F77108400549C1
:1009B000088000BF0348008800F008000028F9D034
:1009C0007047000004280040704710B500F002F89E
:1009D00010BD00000CB50020019000903348006865
:1009E00040F480303149086000BF3048006800F4AE
:1009F000003000900198401C0190009818B90198AF
:100A0000B0F5A06FF1D12948006800F4003010B1B2
:100A10000120009001E0002000900098012843D1BF
:100A20002348006840F0100021490860084600682B
:100A300020F0030008600846006840F002000860EB
:100A40001A484068194948600846406848600846A6
:100A5000406840F4806048600846406820F47C109C
:100A600048600846406840F4E8104860084600685E
:100A700040F08070086000BF0C48006800F0007013
:100A80000028F9D00948406820F003000749486071
:100A90000846406840F00200486000BF03484068D4
:100AA00000F00C000828F9D10CBD00000010024035
:100AB000002002407047000010B51348006840F065
:100AC00001001149086008464068104908400E4975
:100AD0004860084600680E4908400B49086008460F
:100AE000006820F4802008600846406820F4FE007A
:100AF00048604FF41F008860FFF767FF4FF0006009
:100B00000449086010BD0000001002400000FFF81A
:100B1000FFFFF6FE08ED00E00FB410B50798A0F255
:100B20006C70079002A8FFF7FDFA10BC5DF814FB8B
:100B300073B5054601A8FFF783FB0446606900F220
:100B40006C7060612C2221462846FFF73FFB7CBD7C
:100B500000B58FB004A800F021F8DDE90521049864
:100B6000CDE900120290DDE90730421C02A009998C
:100B700000F042FB0FB000BD5254433A20202564E0
:100B80002D25642D2564202020253032643A25301F
:100B900032643A25303264200D0A000030B58BB043
:100BA0000446FFF7E7FD054629466846FFF7C0FF04
:100BB0002C2269462046FFF709FB0BB030BD000030
:100BC000F0B59DB0064600200E900F901090119049
:100BD00000251C2107A8FFF712FB4FF6FF773446CC
:100BE000012C01DD650002E078A000F005FBC7E004
:100BF00000BF20217F4800F059FA0028F9D07D4835
:100C000000F0F2FAC2B22846691C8DB20EA90A544D
:100C1000681E085C302807DB681E085C392803DC86
:100C2000681E085C0D2800D16500012D10DD681ECE
:100C30000EA9085C3038A91E0EAA515C303901EBB0
:100C4000810100EB4101681E401007AA42F8201004
:100C5000042D1DD1012C1BD10898252813D20798EB
:100C6000122810D9079815280DD26423DDE9072032
:100C700003FB020160A000F0BFFA601CC4B263A0D5
:100C800000F0BAFA7CE000256AA000F0B5FA77E03F
:100C900009980D280DD2062D0BD1022C09D16CA07C
:100CA000099900F0A9FA601CC4B26EA000F0A4FA81
:100CB00066E0062D06D1022C04D1042573A000F0B5
:100CC0009BFA5DE00A9820280DD2082D0BD1032C49
:100CD00009D175A00A9900F08FFA601CC4B276A001
:100CE00000F08AFA4CE0082D06D1032C04D1062529
:100CF0007BA000F081FA43E00B9819280DD20A2D51
:100D00000BD1042C09D17DA00B9900F075FA601C61
:100D1000C4B27FA000F070FA32E00A2D06D1042C94
:100D200004D1082584A000F067FA29E00C983D283A
:100D30000DD20C2D0BD1052C09D186A00C9900F0F9
:100D40005BFA601CC4B288A000F056FA18E00C9858
:100D50003D2808D20C2D06D1052C04D10A258CA0E3
:100D600000F04AFA0CE00D983D2809D20E2D07D16B
:100D7000062C05D18DA00D9900F03EFA601CC4B27E
:100D8000072C02DA002F7FF433AF2C2112A8FFF7D3
:100D900036FA6422DDE9071002FB0100179009987A
:100DA000401E16900A9815900B9814900C9813906A
:100DB0000D9812901C2216A96846FFF707FA12A890
:100DC0000FC800F0FDF81DB0F0BD0000506C65616B
:100DD0007365205365742059656172732062657470
:100DE0007765656E203230303020746F20323033BA
:100DF000370D0A000038014053657420596561724F
:100E0000733A202025640D0A00000000506C6561D3
:100E1000736520536574204D6F6E7468732062652E
:100E2000747765656E2020303120746F2031322058
:100E30000D0A0000506C656173652053657420597C
:100E40006561727320616761696E210D0A0000009F
:100E5000536574204D6F6E7468733A202025640DBD
:100E60000A000000506C656173652053657420446E
:100E7000617973206265747765656E20203031205A
:100E8000746F203331200D0A00000000506C656142
:100E9000736520536574204D6F6E746873206167AD
:100EA00061696E200D0A00005365742044617973F6
:100EB0003A202025640D0A00506C6561736520534B
:100EC000657420486F757273206265747765656E0E
:100ED00020303020746F203233200D0A00000000D3
:100EE000506C65617365205365742044617973208B
:100EF000616761696E200D0A00000000536574206F
:100F0000486F7572733A202025640D0A00000000B6
:100F1000506C6561736520536574204D696E7574FE
:100F20006573206265747765656E20303020746F5C
:100F3000203539200D0A0000506C6561736520531F
:100F4000657420486F75727320616761696E200D4A
:100F50000A000000536574204D696E757465733A1C
:100F6000202025640D0A0000506C656173652053D4
:100F70006574205365636F6E647320626574776572
:100F8000656E20303020746F203539200D0A000046
:100F9000506C6561736520536574204D696E75747E
:100FA000657320616761696E200D0A0053657420C6
:100FB0005365636F6E64733A202025640D0A000048
:100FC0000FB410B588B01C220EA96846FFF7FEF8D2
:100FD0000AA80FC8FFF7A0FD044600F004F808B007
:100FE00010BC5DF814FB10B50446FFF7D1FC204699
:100FF000FFF7B0FCFFF7CCFC10BD21B1828942F4B1
:101000000052828104E082894DF6FF731A4082818A
:101010007047000000B585B0012144F20400FFF7DD
:10102000D1FA4FF40070ADF8100018208DF81300BD
:1010300003208DF8120004A91A48FFF7B1F94FF404
:101040008060ADF8100004208DF8130003208DF8A7
:10105000120004A91348FFF7A3F94FF4E130009000
:101060000020ADF80400ADF80600ADF80800ADF8BA
:101070000C000C20ADF80A0069460B4800F048F857
:10108000012240F22551084800F01DF8012240F2EB
:101090002771054800F017F801210348FFF7ADFF5D
:1010A00005B000BD000801400038014002460020A4
:1010B000B1F5007F00D100BF13880B400BB10120B8
:1010C00000E000207047F0B503460024002600250C
:1010D000002040F66A17B94200D100BF1846C1F39C
:1010E000421401F01F06012707FA06F5012C01D171
:1010F0000C3004E0022C01D1103000E014301AB1A1
:1011000007682F43076002E00768AF430760F0BD40
:101110002DE9F04786B005460E460024A24600BFE2
:10112000A1460027B08900B100BF2F462C8A4CF69B
:10113000FF700440F08804432C82AC894EF6F31013
:101140000440B08831890843718908430443AC8165
:10115000AC8A4FF6FF400440B0890443AC8201A83A
:10116000FFF750FA1F48874202D1DDF810A001E0D6
:10117000DDF80CA0A88900F4004040B10AEBCA00D9
:1011800000EB0A1031684900B0FBF1F807E00AEB08
:10119000CA0000EB0A1031688900B0FBF1F8642046
:1011A000B8FBF0F004012009642101FB1089A88933
:1011B00000F4004040B1322000EBC900B0FBF1F078
:1011C00000F00700044308E0322000EB091064211E
:1011D000B0FBF1F000F00F0004432C8106B0BDE835
:1011E000F08700000038014001468888C0F30800FD
:1011F000704700BFFEE700000FB4054B10B503A910
:10120000044A029800F018F810BC5DF814FB0000C6
:101210007B1500081400002002E008C8121F08C156
:10122000002AFAD170477047002001E001C1121F67
:10123000002AFBD1704700002DE9FF4F8BB0884694
:101240000546002606E025280BD0DDE90D12904763
:101250006D1C761C28780028F5D10FB03046BDE80B
:10126000F08F0024A146A2460122AE4900E00443CB
:1012700015F8013F203B02FA03F00842F7D1287825
:101280002A2810D06FF02F022878A0F13001092908
:1012900015D809EB890102EB410144F0020400EB8F
:1012A00001096D1CF0E758F8041B5FEA010903D53A
:1012B00044F40054C9F1000944F002046D1C28787C
:1012C0002E2817D115F8010F44F004042A280ED057
:1012D0006FF02F022878A0F1300109290AD80AEB13
:1012E0008A0102EB410100EB010A6D1CF2E758F89C
:1012F00004AB6D1C28786C280FD006DC4C2817D066
:1013000068280DD06A2814D104E0742810D07A28F7
:101310000FD10DE044F400140AE044F4801401E01D
:1013200044F440146978814202D104F580146D1CA4
:101330006D1C2878692865D006DC00288DD06328CC
:1013400027D0642806D15DE06E2808D073282AD003
:10135000752877D0DDE90D129047761CE0E0C4F3E4
:101360000250022809D003280DD0D8F80010042814
:101370000DD00E6008F10408D2E0D8F80010F21782
:10138000C1E90062F6E7D8F800100E80F2E70E70AF
:10139000F0E718F8041B8DF8001000208DF801000C
:1013A000EB46012003E058F804BB4FF0FF30610723
:1013B0004FF0000701D40AE07F1C57450DDA874241
:1013C000FADB1BF807100029F6D106E07F1C8742E4
:1013D000FCDB1BF807100029F8D1DDE90D23A9EB90
:1013E00007008146214600F0B1F83044C61904E0F8
:1013F000DDE90D121BF8010B90477F1EF8D2214644
:10140000484688E058F8040BC4F302514FF00A0B29
:10141000032900D100B2042900D140B2002802DA29
:1014200040422D2102E0210505D52B218DF8241005
:10143000012104E006E0E10710D02021F6E708AF23
:10144000089113E058F8040BC4F302514FF00A0B53
:10145000032900D180B2042900D1C0B20021EEE7F7
:101460005946FEF7D7FE303107F8011D0028F7D1A5
:10147000ADEB070000F1200B600702D524F48034A7
:1014800001E04FF0010ADA4502DDAAEB0B0000E0B3
:101490000020824600EB0B0108980144A9EB0100F3
:1014A0000A90E00306D4DDE90D2321460A9800F0F6
:1014B0004DF806444FF0000908E009A911F80900A9
:1014C000DDE90D12904709F10109761C089989455B
:1014D000F3DBE0030CD5DDE90D2321460A9800F08B
:1014E00035F8064404E0DDE90D1230209047761C03
:1014F000BAF10001AAF1010AF5DC05E0DDE90D12FF
:1015000017F8010B9047761CBBF10001ABF1010B02
:10151000F4DC0A982146DDE90D2300F005F80644C5
:101520006D1C97E6092801002DE9F04104460025CD
:101530001E461746880404D405E039462020B047EB
:101540006D1C641EF9D52846BDE8F0812DE9F041F7
:10155000044600251E469046C80301D5302700E00A
:101560002027880404D505E041463846B0476D1C65
:10157000641EF9D52846BDE8F08138B504468DF8DB
:10158000000069460320ABBE204638BDFEF7F2FEE0
:10159000FFF740FDFFF726F900BFFEE71F1C1F1EE7
:1015A0001F1E1F1F1E1F1E1F1F1D1F1E1F1E1F1F52
:1015B0001E1F1E1FD4150008000000201800000088
:1015C00018120008EC150008180000203004000074
:1015D00028120008000000000102030401020304B5
:0C15E000060708090204060800000000CD
:04000005080000ED02
:00000001FF
